{
  "contractName": "Covid19_blockchain",
  "abi": [
    {
      "constant": true,
      "inputs": [
        {
          "internalType": "uint256",
          "name": "",
          "type": "uint256"
        }
      ],
      "name": "Indian_states",
      "outputs": [
        {
          "internalType": "uint256",
          "name": "id",
          "type": "uint256"
        },
        {
          "internalType": "string",
          "name": "state_name",
          "type": "string"
        },
        {
          "internalType": "int256",
          "name": "Covid19_activecases",
          "type": "int256"
        },
        {
          "internalType": "int256",
          "name": "Covid19_effectedcases",
          "type": "int256"
        },
        {
          "internalType": "int256",
          "name": "Covid19_deaths",
          "type": "int256"
        },
        {
          "internalType": "int256",
          "name": "Covid19_recovered",
          "type": "int256"
        },
        {
          "internalType": "uint256",
          "name": "count",
          "type": "uint256"
        }
      ],
      "payable": false,
      "stateMutability": "view",
      "type": "function"
    },
    {
      "constant": true,
      "inputs": [],
      "name": "nextid",
      "outputs": [
        {
          "internalType": "uint256",
          "name": "",
          "type": "uint256"
        }
      ],
      "payable": false,
      "stateMutability": "view",
      "type": "function"
    },
    {
      "constant": false,
      "inputs": [
        {
          "internalType": "string",
          "name": "state_name",
          "type": "string"
        },
        {
          "internalType": "int256",
          "name": "activecases",
          "type": "int256"
        },
        {
          "internalType": "int256",
          "name": "effectedcases",
          "type": "int256"
        },
        {
          "internalType": "int256",
          "name": "Deaths",
          "type": "int256"
        },
        {
          "internalType": "int256",
          "name": "Recovered",
          "type": "int256"
        },
        {
          "internalType": "string",
          "name": "patient_id",
          "type": "string"
        },
        {
          "internalType": "string",
          "name": "doctor__id",
          "type": "string"
        },
        {
          "internalType": "string",
          "name": "hash",
          "type": "string"
        },
        {
          "internalType": "int256",
          "name": "flag",
          "type": "int256"
        }
      ],
      "name": "New_entry",
      "outputs": [],
      "payable": false,
      "stateMutability": "nonpayable",
      "type": "function"
    },
    {
      "constant": true,
      "inputs": [
        {
          "internalType": "string",
          "name": "state_name",
          "type": "string"
        }
      ],
      "name": "Search_statename",
      "outputs": [
        {
          "internalType": "string",
          "name": "",
          "type": "string"
        },
        {
          "internalType": "uint256",
          "name": "",
          "type": "uint256"
        },
        {
          "internalType": "string",
          "name": "",
          "type": "string"
        },
        {
          "internalType": "string",
          "name": "",
          "type": "string"
        },
        {
          "internalType": "string",
          "name": "",
          "type": "string"
        },
        {
          "internalType": "int256",
          "name": "",
          "type": "int256"
        },
        {
          "internalType": "string",
          "name": "",
          "type": "string"
        },
        {
          "internalType": "int256",
          "name": "",
          "type": "int256"
        },
        {
          "internalType": "string",
          "name": "",
          "type": "string"
        },
        {
          "internalType": "int256",
          "name": "",
          "type": "int256"
        },
        {
          "internalType": "string",
          "name": "",
          "type": "string"
        },
        {
          "internalType": "int256",
          "name": "",
          "type": "int256"
        }
      ],
      "payable": false,
      "stateMutability": "view",
      "type": "function"
    },
    {
      "constant": true,
      "inputs": [
        {
          "internalType": "string",
          "name": "state_name",
          "type": "string"
        }
      ],
      "name": "getAll",
      "outputs": [
        {
          "internalType": "string[]",
          "name": "",
          "type": "string[]"
        }
      ],
      "payable": false,
      "stateMutability": "view",
      "type": "function"
    },
    {
      "constant": false,
      "inputs": [
        {
          "internalType": "string",
          "name": "state_name",
          "type": "string"
        },
        {
          "internalType": "int256",
          "name": "flag",
          "type": "int256"
        }
      ],
      "name": "Delete_state",
      "outputs": [],
      "payable": false,
      "stateMutability": "nonpayable",
      "type": "function"
    }
  ],
  "bytecode": "0x608060405234801561001057600080fd5b506117e0806100206000396000f3fe608060405234801561001057600080fd5b50600436106100625760003560e01c806304ea6bb9146100675780634beabde9146100905780635c29d40d146100a55780638184ae10146100ba578063dc3131f0146100e0578063ff62b9131461010b575b600080fd5b61007a61007536600461115d565b61011e565b6040516100879190611545565b60405180910390f35b6100a361009e3660046111eb565b6105f6565b005b6100ad6109ca565b6040516100879190611658565b6100cd6100c836600461130e565b6109d0565b6040516100879796959493929190611666565b6100f36100ee36600461115d565b610ab7565b6040516100879c9b9a99989796959493929190611556565b6100a361011936600461119a565b610d27565b6060600061012b83610d94565b905060606001828154811061013c57fe5b90600052602060002090600702016006015460090260405190808252806020026020018201604052801561018457816020015b606081526020019060019003908161016f5790505b5090506000805b6001848154811061019857fe5b9060005260206000209060070201600601546009028110156105ea576040518060400160405280600a81526020016914185d1a595b9d17da5960b21b8152508382815181106101e357fe5b602090810291909101810191909152600085815280825260408082208583528352908190208054825160026001831615610100026000190190921691909104601f81018590048502820185019093528281529290919083018282801561028a5780601f1061025f5761010080835404028352916020019161028a565b820191906000526020600020905b81548152906001019060200180831161026d57829003601f168201915b505050505083826001018151811061029e57fe5b602002602001018190525060405180604001604052806009815260200168111bd8dd1bdc97da5960ba1b8152508382600201815181106102da57fe5b60209081029190910181019190915260008581528082526040808220858352835290819020600190810180548351600293821615610100026000190190911692909204601f810185900485028301850190935282825290929091908301828280156103865780601f1061035b57610100808354040283529160200191610386565b820191906000526020600020905b81548152906001019060200180831161036957829003601f168201915b505050505083826003018151811061039a57fe5b6020026020010181905250604051806040016040528060098152602001680ccd2d8cabed0c2e6d60bb1b8152508382600401815181106103d657fe5b602090810291909101810191909152600085815280825260408082208583528352908190206002908101805483516001821615610100026000190190911692909204601f810185900485028301850190935282825290929091908301828280156104815780601f1061045657610100808354040283529160200191610481565b820191906000526020600020905b81548152906001019060200180831161046457829003601f168201915b505050505083826005018151811061049557fe5b60200260200101819052506040518060400160405280600e81526020016d73656e6465725f6164647265737360901b8152508382600601815181106104d657fe5b602090810291909101810191909152600085815280825260408082208583528352908190206003018054825160026001831615610100026000190190921691909104601f8101859004850282018501909352828152929091908301828280156105805780601f1061055557610100808354040283529160200191610580565b820191906000526020600020905b81548152906001019060200180831161056357829003601f168201915b505050505083826007018151811061059457fe5b60200260200101819052506040518060400160405280600a8152602001690101010101010101010160b51b8152508382600801815181106105d157fe5b602090810291909101015260019091019060090161018b565b5090925050505b919050565b806001141561099e57600061060a8a610e3b565b905080600114156107b75761061d610fee565b858152602081018590526040810184905261063733610ed0565b6060820152600254600090815260208181526040808320838052825290912082518051849361066a928492910190611016565b5060208281015180516106839260018501920190611016565b506040820151805161069f916002840191602090910190611016565b50606082015180516106bb916003840191602090910190611016565b50506040805160e081018252600254815260208082018f81529282018e9052606082018d9052608082018c905260a082018b9052600160c0830181905280548082018083556000839052845160079092027fb10e2d527612073b26eecdfd717e6a320cf44b4afac2b0732d9fcbe2b7fa0cf68101928355955180519397509095919361076e937fb10e2d527612073b26eecdfd717e6a320cf44b4afac2b0732d9fcbe2b7fa0cf790930192910190611016565b506040820151600280830191909155606083015160038301556080830151600483015560a0830151600583015560c0909201516006909101558054600101905550610998915050565b60006107c28b610d94565b90506000600182815481106107d357fe5b90600052602060002090600702016006015490508b600183815481106107f557fe5b90600052602060002090600702016001019080519060200190610819929190611016565b508a6001838154811061082857fe5b906000526020600020906007020160020160008282540192505081905550896001838154811061085457fe5b906000526020600020906007020160030160008282540192505081905550886001838154811061088057fe5b90600052602060002090600702016004016000828254019250508190555087600183815481106108ac57fe5b60009182526020909120600560079092020101805490910190556108ce610fee565b87815260208101879052604081018690526108e833610ed0565b60608201526000838152602081815260408083208584528252909120825180518493610918928492910190611016565b5060208281015180516109319260018501920190611016565b506040820151805161094d916002840191602090910190611016565b5060608201518051610969916003840191602090910190611016565b509050506001838154811061097a57fe5b60009182526020909120600660079092020101805460010190555050505b506109bf565b60405162461bcd60e51b81526004016109b690611648565b60405180910390fd5b505050505050505050565b60025481565b600181815481106109dd57fe5b9060005260206000209060070201600091509050806000015490806001018054600181600116156101000203166002900480601f016020809104026020016040519081016040528092919081815260200182805460018160011615610100020316600290048015610a8f5780601f10610a6457610100808354040283529160200191610a8f565b820191906000526020600020905b815481529060010190602001808311610a7257829003601f168201915b5050505050908060020154908060030154908060040154908060050154908060060154905087565b606060006060806060600060606000606060006060600080610ad88e610d94565b905060018181548110610ae757fe5b90600052602060002090600702016000015460018281548110610b0657fe5b906000526020600020906007020160010160018381548110610b2457fe5b90600052602060002090600702016002015460018481548110610b4357fe5b90600052602060002090600702016003015460018581548110610b6257fe5b90600052602060002090600702016004015460018681548110610b8157fe5b600091825260209182902060056007909202010154604080518082018252600280825261125960f21b8286015282518084018452600a8152695374617465206e616d6560b01b8187015289548451601f600019610100600185161502019092169390930490810187900487028301870190945283825291999891979196919591949193929091879190830182828015610c5b5780601f10610c3057610100808354040283529160200191610c5b565b820191906000526020600020905b815481529060010190602001808311610c3e57829003601f168201915b505050505094506040518060400160405280600c81526020016b41637469766520636173657360a01b815250939291906040518060400160405280600e81526020016d456666656374656420636173657360901b8152509291906040518060400160405280600681526020016544656174687360d01b81525091906040518060400160405280600f81526020016e5265636f766572656420636173657360881b815250909c509c509c509c509c509c509c509c509c509c509c509c505091939597999b5091939597999b565b806001141561099e576000610d3b83610d94565b905060018181548110610d4a57fe5b60009182526020822060079091020181815590610d6a6001830182611094565b50600060028201819055600382018190556004820181905560058201819055600690910155505050565b6000805b600154811015610e225782604051602001610db3919061152d565b6040516020818303038152906040528051906020012060018281548110610dd657fe5b9060005260206000209060070201600101604051602001610df79190611539565b604051602081830303815290604052805190602001201415610e1a5790506105f1565b600101610d98565b5060405162461bcd60e51b81526004016109b690611638565b60006001815b600154811015610ec95783604051602001610e5c919061152d565b6040516020818303038152906040528051906020012060018281548110610e7f57fe5b9060005260206000209060070201600101604051602001610ea09190611539565b604051602081830303815290604052805190602001201415610ec157600091505b600101610e41565b5092915050565b604080516028808252606082810190935282919060208201818038833901905050905060005b6014811015610ec95760008160130360080260020a856001600160a01b031681610f1c57fe5b0460f81b9050600060108260f81c60ff1681610f3457fe5b0460f81b905060008160f81c6010028360f81c0360f81b9050610f5682610fbd565b858560020281518110610f6557fe5b60200101906001600160f81b031916908160001a905350610f8581610fbd565b858560020260010181518110610f9757fe5b60200101906001600160f81b031916908160001a9053505060019092019150610ef69050565b6000600a60f883901c1015610fdd578160f81c60300160f81b90506105f1565b8160f81c60570160f81b90506105f1565b6040518060800160405280606081526020016060815260200160608152602001606081525090565b828054600181600116156101000203166002900490600052602060002090601f016020900481019282601f1061105757805160ff1916838001178555611084565b82800160010185558215611084579182015b82811115611084578251825591602001919060010190611069565b506110909291506110db565b5090565b50805460018160011615610100020316600290046000825580601f106110ba57506110d8565b601f0160209004906000526020600020908101906110d891906110db565b50565b6110f591905b8082111561109057600081556001016110e1565b90565b803561110381611789565b92915050565b600082601f83011261111a57600080fd5b813561112d611128826116fc565b6116d5565b9150808252602083016020830185838301111561114957600080fd5b611154838284611743565b50505092915050565b60006020828403121561116f57600080fd5b813567ffffffffffffffff81111561118657600080fd5b61119284828501611109565b949350505050565b600080604083850312156111ad57600080fd5b823567ffffffffffffffff8111156111c457600080fd5b6111d085828601611109565b92505060206111e1858286016110f8565b9150509250929050565b60008060008060008060008060006101208a8c03121561120a57600080fd5b893567ffffffffffffffff81111561122157600080fd5b61122d8c828d01611109565b995050602061123e8c828d016110f8565b985050604061124f8c828d016110f8565b97505060606112608c828d016110f8565b96505060806112718c828d016110f8565b95505060a08a013567ffffffffffffffff81111561128e57600080fd5b61129a8c828d01611109565b94505060c08a013567ffffffffffffffff8111156112b757600080fd5b6112c38c828d01611109565b93505060e08a013567ffffffffffffffff8111156112e057600080fd5b6112ec8c828d01611109565b9250506101006112fe8c828d016110f8565b9150509295985092959850929598565b60006020828403121561132057600080fd5b600061119284846110f8565b600061133883836113bc565b9392505050565b600061134a82611736565b611354818561173a565b93508360208202850161136685611724565b8060005b858110156113a05784840389528151611383858261132c565b945061138e83611724565b60209a909a019992505060010161136a565b5091979650505050505050565b6113b6816110f5565b82525050565b60006113c782611736565b6113d1818561173a565b93506113e181856020860161174f565b6113ea8161177f565b9093019392505050565b60006113ff82611736565b61140981856105f1565b935061141981856020860161174f565b9290920192915050565b6000815460018116600081146114405760018114611463576114a2565b607f600283041661145181876105f1565b60ff19841681529550850192506114a2565b6002820461147181876105f1565b955061147c8561172a565b60005b8281101561149b5781548882015260019091019060200161147f565b5050850192505b505092915050565b60006114b760288361173a565b7f5468697320737461746520646f6573206e6f7420657869737420696e20626c6f815267636b636861696e2160c01b602082015260400192915050565b6000611501601e8361173a565b7f546865207472616e73616374696f6e20776173206e6f74207369676e65640000815260200192915050565b600061133882846113f4565b60006113388284611423565b60208082528101611338818461133f565b6101808082528101611568818f6113bc565b9050611577602083018e6113ad565b8181036040830152611589818d6113bc565b9050818103606083015261159d818c6113bc565b905081810360808301526115b1818b6113bc565b90506115c060a083018a6113ad565b81810360c08301526115d281896113bc565b90506115e160e08301886113ad565b8181036101008301526115f481876113bc565b90506116046101208301866113ad565b81810361014083015261161781856113bc565b90506116276101608301846113ad565b9d9c50505050505050505050505050565b60208082528101611103816114aa565b60208082528101611103816114f4565b6020810161110382846113ad565b60e08101611674828a6113ad565b818103602083015261168681896113bc565b905061169560408301886113ad565b6116a260608301876113ad565b6116af60808301866113ad565b6116bc60a08301856113ad565b6116c960c08301846113ad565b98975050505050505050565b60405181810167ffffffffffffffff811182821017156116f457600080fd5b604052919050565b600067ffffffffffffffff82111561171357600080fd5b506020601f91909101601f19160190565b60200190565b60009081526020902090565b5190565b90815260200190565b82818337506000910152565b60005b8381101561176a578181015183820152602001611752565b83811115611779576000848401525b50505050565b601f01601f191690565b611792816110f5565b81146110d857600080fdfea365627a7a7231582058655e350bc859a7905e66fd381ab035f0587db8d011246874907ed57f880adb6c6578706572696d656e74616cf564736f6c63430005100040",
  "source": "     pragma solidity ^0.5.0;\r\n     pragma experimental ABIEncoderV2;\r\ncontract Covid19_blockchain{\r\n    struct Indian{\r\n        uint id;\r\n        string state_name;\r\n        int Covid19_activecases;\r\n        int Covid19_effectedcases;\r\n        int Covid19_deaths;\r\n        int Covid19_recovered;\r\n        uint count;\r\n        \r\n    }\r\n        mapping(uint => mapping(uint => patient_details)) details;\r\n    struct patient_details{\r\n        string pat_id;\r\n        string doc;\r\n        string ha;\r\n        string senderr;\r\n    }\r\n\r\n    Indian[] public Indian_states;\r\n    uint public nextid;\r\n    \r\n    function New_entry(string memory state_name,int activecases, int  effectedcases,int Deaths,int   Recovered, string memory  patient_id, string memory doctor__id, string memory hash,int flag) public{\r\n            if(flag==1){\r\n            uint k=findd_id(state_name);\r\n            if(k==1){\r\n            patient_details memory p;\r\n            p.pat_id=patient_id;\r\n            p.doc=doctor__id;\r\n            p.ha=hash;\r\n            p.senderr=toAsciiString(msg.sender);\r\n           \r\n            details[nextid][0]=p;\r\n             uint countt=1;\r\n\r\n            Indian_states.push(Indian(nextid,state_name,activecases,effectedcases, Deaths,Recovered,countt));\r\n            nextid++;}\r\n            else\r\n            {\r\n                uint i=find_id(state_name);\r\n              uint j=Indian_states[i].count;\r\n                \r\n                  Indian_states[i].state_name=state_name;\r\n                  Indian_states[i].Covid19_activecases+=activecases;\r\n                  Indian_states[i].Covid19_effectedcases+=effectedcases;\r\n                  Indian_states[i].Covid19_deaths+=Deaths;\r\n                  Indian_states[i].Covid19_recovered+=Recovered;\r\n                  patient_details memory p;\r\n                  p.pat_id=patient_id;\r\n                  p.doc=doctor__id;\r\n                  p.ha=hash;\r\n                  p.senderr=toAsciiString(msg.sender);\r\n                  details[i][j]=p;\r\n                  Indian_states[i].count++;\r\n            }\r\n            }\r\n            else{\r\n                 revert('The transaction was not signed');\r\n            }\r\n            \r\n        }\r\n        function Search_statename(string memory state_name)view public returns(string memory,uint,string memory,string memory,string memory,int,string memory,int,string memory,int,string memory,int){\r\n            \r\n            uint i=find_id(state_name);\r\n                    return(\"Id\",Indian_states[i].id,\"State name\",Indian_states[i].state_name,\"Active cases\",Indian_states[i].Covid19_activecases,\"Effected cases\",Indian_states[i].Covid19_effectedcases,\"Deaths\",Indian_states[i].Covid19_deaths,\"Recovered cases\",Indian_states[i].Covid19_recovered);\r\n                \r\n            \r\n        }\r\n        \r\n        function getAll(string memory state_name) view public  returns (string[] memory){\r\n            uint j=find_id(state_name);\r\n    string[] memory ret = new string[](9*Indian_states[j].count);\r\n    uint k=0;\r\n    for (uint i = 0; i < 9*Indian_states[j].count; i+=9) {\r\n        ret[i]=\"Patient_id\";\r\n        ret[i+1] = details[j][k].pat_id;\r\n        ret[i+2]=\"Doctor_id\";\r\n        ret[i+3]=details[j][k].doc;\r\n        ret[i+4]=\"file_hash\";\r\n        ret[i+5]=details[j][k].ha;\r\n        ret[i+6]=\"sender_address\";\r\n        ret[i+7]=details[j][k].senderr;\r\n        ret[i+8]=\"          \";\r\n        k++;\r\n    }\r\n    return ret;\r\n}\r\n        \r\n\r\n\r\n        function Delete_state(string memory state_name,int flag)public{\r\n            if(flag==1){\r\n            uint i=find_id(state_name);\r\n                  delete Indian_states[i]; \r\n            }\r\n            else{\r\n                 revert('The transaction was not signed');\r\n            }\r\n                \r\n            \r\n        }\r\n        function find_id(string memory state_name)view internal returns(uint){\r\n            for(uint i=0;i<Indian_states.length;i++){\r\n                if(keccak256(abi.encodePacked(Indian_states[i].state_name))== keccak256(abi.encodePacked(state_name)))\r\n                {\r\n                    return i;\r\n                }\r\n            }\r\n            revert('This state does not exist in blockchain!');\r\n        }\r\n        function toAsciiString(address x) internal view returns (string memory) {\r\n    bytes memory s = new bytes(40);\r\n    for (uint i = 0; i < 20; i++) {\r\n        bytes1 b = bytes1(uint8(uint(uint160(x)) / (2**(8*(19 - i)))));\r\n        bytes1 hi = bytes1(uint8(b) / 16);\r\n        bytes1 lo = bytes1(uint8(b) - 16 * uint8(hi));\r\n        s[2*i] = char(hi);\r\n        s[2*i+1] = char(lo);            \r\n    }\r\n    return string(s);\r\n}\r\n\r\nfunction char(bytes1 b) internal view returns (bytes1 c) {\r\n    if (uint8(b) < 10) return bytes1(uint8(b) + 0x30);\r\n    else return bytes1(uint8(b) + 0x57);\r\n}\r\n         function findd_id(string memory state_name)view internal returns(uint){\r\n             uint k=1;\r\n            for(uint i=0;i<Indian_states.length;i++){\r\n                if(keccak256(abi.encodePacked(Indian_states[i].state_name))== keccak256(abi.encodePacked(state_name)))\r\n                {\r\n                     k=0;\r\n                }\r\n            }\r\n            return k;\r\n           \r\n        }\r\n        \r\n        \r\n        \r\n    \r\n}\r\n        \r\n        \r\n        \r\n",
  "sourcePath": "C:/Users/Robins Singh/Desktop/sem 7 blockchain/daap public zip/contracts/Covid19_blockchain.sol",
  "compiler": {
    "name": "solc",
    "version": "0.5.16+commit.9c3226ce.Emscripten.clang"
  },
  "schemaVersion": "3.2.3",
  "updatedAt": "2021-11-15T18:30:53.301Z",
  "networkType": "ethereum",
  "devdoc": {
    "methods": {}
  },
  "userdoc": {
    "methods": {}
  }
}